{
    "contractName": "Addition",
    "abi": [
        {
            "inputs": [],
            "name": "owner",
            "outputs": [
                {
                    "internalType": "address",
                    "name": "",
                    "type": "address"
                }
            ],
            "stateMutability": "view",
            "type": "function",
            "constant": true
        },
        {
            "inputs": [],
            "name": "result",
            "outputs": [
                {
                    "internalType": "uint256",
                    "name": "",
                    "type": "uint256"
                }
            ],
            "stateMutability": "view",
            "type": "function",
            "constant": true
        },
        {
            "inputs": [
                {
                    "internalType": "uint256",
                    "name": "_num1",
                    "type": "uint256"
                },
                {
                    "internalType": "uint256",
                    "name": "_num2",
                    "type": "uint256"
                }
            ],
            "name": "add",
            "outputs": [],
            "stateMutability": "nonpayable",
            "type": "function"
        },
        {
            "inputs": [],
            "name": "retrieveResult",
            "outputs": [
                {
                    "internalType": "uint256",
                    "name": "",
                    "type": "uint256"
                }
            ],
            "stateMutability": "view",
            "type": "function",
            "constant": true
        }
    ],
    "bytecode": "0x608060405234801561001057600080fd5b506102ac806100206000396000f3fe608060405234801561001057600080fd5b506004361061004c5760003560e01c806345a64b7114610051578063653721471461006f578063771602f71461008d5780638da5cb5b146100a9575b600080fd5b6100596100c7565b604051610066919061012b565b60405180910390f35b6100776100d0565b604051610084919061012b565b60405180910390f35b6100a760048036038101906100a29190610177565b6100d6565b005b6100b16100ec565b6040516100be91906101f8565b60405180910390f35b60008054905090565b60005481565b80826100e29190610242565b6000819055505050565b600160009054906101000a900473ffffffffffffffffffffffffffffffffffffffff1681565b6000819050919050565b61012581610112565b82525050565b6000602082019050610140600083018461011c565b92915050565b600080fd5b61015481610112565b811461015f57600080fd5b50565b6000813590506101718161014b565b92915050565b6000806040838503121561018e5761018d610146565b5b600061019c85828601610162565b92505060206101ad85828601610162565b9150509250929050565b600073ffffffffffffffffffffffffffffffffffffffff82169050919050565b60006101e2826101b7565b9050919050565b6101f2816101d7565b82525050565b600060208201905061020d60008301846101e9565b92915050565b7f4e487b7100000000000000000000000000000000000000000000000000000000600052601160045260246000fd5b600061024d82610112565b915061025883610112565b92508282019050808211156102705761026f610213565b5b9291505056fea2646970667358221220e879ec51fe36c2aa8864e62668c52b1e96035f9946b0d4ecc224d1dc5abcf3da64736f6c63430008130033",
    "immutableReferences": {},
    "source": "// SPDX-License-Identifier: MIT\npragma solidity ^0.8.19;\n\ncontract Addition {\n\n    // state variables\n    uint256 public result;\n    address public owner;\n\n    modifier onlyOwner {\n        require(msg.sender == owner, \"Only owner can call this function\");\n        _;\n    }\n\n    // add operation\n    function add(uint256 _num1, uint256 _num2) public /*onlyOwner*/ {\n        result = _num1 + _num2;\n    }\n\n    function retrieveResult() public view returns(uint256) {\n        return result;\n    }\n}",
    "sourcePath": "/home/jaz/Documents/ACADEMICS/WEB3.0/TRUFFLE/Add_dapp/contracts/Addition.sol",
    "compiler": {
        "name": "solc",
        "version": "0.8.19+commit.7dd6d404.Emscripten.clang"
    },
    "schemaVersion": "3.4.16",
    "updatedAt": "2024-05-16T09:38:53.095Z",
    "networkType": "ethereum",
    "devdoc": {
        "kind": "dev",
        "methods": {},
        "version": 1
    },
    "userdoc": {
        "kind": "user",
        "methods": {},
        "version": 1
    }
}