{
  "contractName": "Addition",
  "abi": [
    {
      "inputs": [],
      "name": "result",
      "outputs": [
        {
          "internalType": "uint256",
          "name": "",
          "type": "uint256"
        }
      ],
      "stateMutability": "view",
      "type": "function",
      "constant": true
    },
    {
      "inputs": [
        {
          "internalType": "uint256",
          "name": "_num1",
          "type": "uint256"
        },
        {
          "internalType": "uint256",
          "name": "_num2",
          "type": "uint256"
        }
      ],
      "name": "add",
      "outputs": [],
      "stateMutability": "nonpayable",
      "type": "function"
    },
    {
      "inputs": [],
      "name": "retrieveResult",
      "outputs": [
        {
          "internalType": "uint256",
          "name": "",
          "type": "uint256"
        }
      ],
      "stateMutability": "view",
      "type": "function",
      "constant": true
    }
  ],
  "bytecode": "0x608060405234801561001057600080fd5b50610201806100206000396000f3fe608060405234801561001057600080fd5b50600436106100415760003560e01c806345a64b71146100465780636537214714610064578063771602f714610082575b600080fd5b61004e61009e565b60405161005b91906100dc565b60405180910390f35b61006c6100a7565b60405161007991906100dc565b60405180910390f35b61009c60048036038101906100979190610128565b6100ad565b005b60008054905090565b60005481565b80826100b99190610197565b6000819055505050565b6000819050919050565b6100d6816100c3565b82525050565b60006020820190506100f160008301846100cd565b92915050565b600080fd5b610105816100c3565b811461011057600080fd5b50565b600081359050610122816100fc565b92915050565b6000806040838503121561013f5761013e6100f7565b5b600061014d85828601610113565b925050602061015e85828601610113565b9150509250929050565b7f4e487b7100000000000000000000000000000000000000000000000000000000600052601160045260246000fd5b60006101a2826100c3565b91506101ad836100c3565b92508282019050808211156101c5576101c4610168565b5b9291505056fea2646970667358221220bd5d10d15979d743a7e6a01506ad79d460b5ea77846161b6dd90807d5123073564736f6c63430008130033",
  "immutableReferences": {},
  "source": "// SPDX-License-Identifier: MIT\npragma solidity ^0.8.19;\n\ncontract Addition {\n\n    // state variable\n    uint256 public result;\n\n    // add operation\n    function add(uint256 _num1, uint256 _num2) public {\n        result = _num1 + _num2;\n    }\n\n    function retrieveResult() public view returns(uint256) {\n        return result;\n    }\n}\n",
  "sourcePath": "/home/jaz/Documents/ACADEMICS/WEB3.0/TRUFFLE/Add_dapp/contracts/Addition.sol",
  "compiler": {
    "name": "solc",
    "version": "0.8.19+commit.7dd6d404.Emscripten.clang"
  },
  "schemaVersion": "3.4.16",
  "updatedAt": "2024-05-16T12:13:38.296Z",
  "networkType": "ethereum",
  "devdoc": {
    "kind": "dev",
    "methods": {},
    "version": 1
  },
  "userdoc": {
    "kind": "user",
    "methods": {},
    "version": 1
  }
}