{
  "contractName": "HelloWorld",
  "abi": [
    {
      "inputs": [
        {
          "internalType": "string",
          "name": "initial_message",
          "type": "string"
        }
      ],
      "stateMutability": "nonpayable",
      "type": "constructor"
    },
    {
      "inputs": [],
      "name": "MessageTriggerFailed",
      "type": "error"
    },
    {
      "anonymous": false,
      "inputs": [
        {
          "indexed": true,
          "internalType": "string",
          "name": "new_message",
          "type": "string"
        }
      ],
      "name": "MessageUpdated",
      "type": "event"
    },
    {
      "inputs": [],
      "name": "get_current_message",
      "outputs": [
        {
          "internalType": "string",
          "name": "",
          "type": "string"
        }
      ],
      "stateMutability": "view",
      "type": "function"
    },
    {
      "inputs": [
        {
          "internalType": "string",
          "name": "_message",
          "type": "string"
        }
      ],
      "name": "setMessage",
      "outputs": [],
      "stateMutability": "nonpayable",
      "type": "function"
    }
  ],
  "bytecode": "0x60806040523480156200001157600080fd5b5060405162000d1538038062000d158339818101604052810190620000379190620001e3565b80600090816200004891906200047f565b505062000566565b6000604051905090565b600080fd5b600080fd5b600080fd5b600080fd5b6000601f19601f8301169050919050565b7f4e487b7100000000000000000000000000000000000000000000000000000000600052604160045260246000fd5b620000b9826200006e565b810181811067ffffffffffffffff82111715620000db57620000da6200007f565b5b80604052505050565b6000620000f062000050565b9050620000fe8282620000ae565b919050565b600067ffffffffffffffff8211156200012157620001206200007f565b5b6200012c826200006e565b9050602081019050919050565b60005b83811015620001595780820151818401526020810190506200013c565b60008484015250505050565b60006200017c620001768462000103565b620000e4565b9050828152602081018484840111156200019b576200019a62000069565b5b620001a884828562000139565b509392505050565b600082601f830112620001c857620001c762000064565b5b8151620001da84826020860162000165565b91505092915050565b600060208284031215620001fc57620001fb6200005a565b5b600082015167ffffffffffffffff8111156200021d576200021c6200005f565b5b6200022b84828501620001b0565b91505092915050565b600081519050919050565b7f4e487b7100000000000000000000000000000000000000000000000000000000600052602260045260246000fd5b600060028204905060018216806200028757607f821691505b6020821081036200029d576200029c6200023f565b5b50919050565b60008190508160005260206000209050919050565b60006020601f8301049050919050565b600082821b905092915050565b600060088302620003077fffffffffffffffffffffffffffffffffffffffffffffffffffffffffffffffff82620002c8565b620003138683620002c8565b95508019841693508086168417925050509392505050565b6000819050919050565b6000819050919050565b6000620003606200035a62000354846200032b565b62000335565b6200032b565b9050919050565b6000819050919050565b6200037c836200033f565b620003946200038b8262000367565b848454620002d5565b825550505050565b600090565b620003ab6200039c565b620003b881848462000371565b505050565b5b81811015620003e057620003d4600082620003a1565b600181019050620003be565b5050565b601f8211156200042f57620003f981620002a3565b6200040484620002b8565b8101602085101562000414578190505b6200042c6200042385620002b8565b830182620003bd565b50505b505050565b600082821c905092915050565b6000620004546000198460080262000434565b1980831691505092915050565b60006200046f838362000441565b9150826002028217905092915050565b6200048a8262000234565b67ffffffffffffffff811115620004a657620004a56200007f565b5b620004b282546200026e565b620004bf828285620003e4565b600060209050601f831160018114620004f75760008415620004e2578287015190505b620004ee858262000461565b8655506200055e565b601f1984166200050786620002a3565b60005b8281101562000531578489015182556001820191506020850194506020810190506200050a565b868310156200055157848901516200054d601f89168262000441565b8355505b6001600288020188555050505b505050505050565b61079f80620005766000396000f3fe608060405234801561001057600080fd5b50600436106100365760003560e01c8063368b87721461003b578063ec68185914610057575b600080fd5b61005560048036038101906100509190610260565b610075565b005b61005f61015f565b60405161006c919061033d565b60405180910390f35b600260009054906101000a900473ffffffffffffffffffffffffffffffffffffffff1673ffffffffffffffffffffffffffffffffffffffff163373ffffffffffffffffffffffffffffffffffffffff1614610105576040517f08c379a00000000000000000000000000000000000000000000000000000000081526004016100fc906103d1565b60405180910390fd5b818160009182610116929190610641565b508181604051610127929190610750565b60405180910390207f8fae638bf5c6396194a6bb16601c4035a07fa48191638ff4102f0d96f14cfefb60405160405180910390a25050565b60606000805461016e9061045a565b80601f016020809104026020016040519081016040528092919081815260200182805461019a9061045a565b80156101e75780601f106101bc576101008083540402835291602001916101e7565b820191906000526020600020905b8154815290600101906020018083116101ca57829003601f168201915b5050505050905090565b600080fd5b600080fd5b600080fd5b600080fd5b600080fd5b60008083601f8401126102205761021f6101fb565b5b8235905067ffffffffffffffff81111561023d5761023c610200565b5b60208301915083600182028301111561025957610258610205565b5b9250929050565b60008060208385031215610277576102766101f1565b5b600083013567ffffffffffffffff811115610295576102946101f6565b5b6102a18582860161020a565b92509250509250929050565b600081519050919050565b600082825260208201905092915050565b60005b838110156102e75780820151818401526020810190506102cc565b60008484015250505050565b6000601f19601f8301169050919050565b600061030f826102ad565b61031981856102b8565b93506103298185602086016102c9565b610332816102f3565b840191505092915050565b600060208201905081810360008301526103578184610304565b905092915050565b7f4f6e6c79206f776e65722063616e2063616c6c20746869732066756e6374696f60008201527f6e00000000000000000000000000000000000000000000000000000000000000602082015250565b60006103bb6021836102b8565b91506103c68261035f565b604082019050919050565b600060208201905081810360008301526103ea816103ae565b9050919050565b600082905092915050565b7f4e487b7100000000000000000000000000000000000000000000000000000000600052604160045260246000fd5b7f4e487b7100000000000000000000000000000000000000000000000000000000600052602260045260246000fd5b6000600282049050600182168061047257607f821691505b6020821081036104855761048461042b565b5b50919050565b60008190508160005260206000209050919050565b60006020601f8301049050919050565b600082821b905092915050565b6000600883026104ed7fffffffffffffffffffffffffffffffffffffffffffffffffffffffffffffffff826104b0565b6104f786836104b0565b95508019841693508086168417925050509392505050565b6000819050919050565b6000819050919050565b600061053e6105396105348461050f565b610519565b61050f565b9050919050565b6000819050919050565b61055883610523565b61056c61056482610545565b8484546104bd565b825550505050565b600090565b610581610574565b61058c81848461054f565b505050565b5b818110156105b0576105a5600082610579565b600181019050610592565b5050565b601f8211156105f5576105c68161048b565b6105cf846104a0565b810160208510156105de578190505b6105f26105ea856104a0565b830182610591565b50505b505050565b600082821c905092915050565b6000610618600019846008026105fa565b1980831691505092915050565b60006106318383610607565b9150826002028217905092915050565b61064b83836103f1565b67ffffffffffffffff811115610664576106636103fc565b5b61066e825461045a565b6106798282856105b4565b6000601f8311600181146106a85760008415610696578287013590505b6106a08582610625565b865550610708565b601f1984166106b68661048b565b60005b828110156106de578489013582556001820191506020850194506020810190506106b9565b868310156106fb57848901356106f7601f891682610607565b8355505b6001600288020188555050505b50505050505050565b600081905092915050565b82818337600083830152505050565b60006107378385610711565b935061074483858461071c565b82840190509392505050565b600061075d82848661072b565b9150819050939250505056fea264697066735822122060ca96c43a100b1d44be078414993d872d79bd0137863cd3174c2702fe5ec5f964736f6c63430008120033",
  "immutableReferences": {},
  "source": "\n// SPDX-License-Identifier: MIT\npragma solidity ^0.8.18;\n\ncontract HelloWorld {\n  \n  /**state variables*/\n  string private message;\n  uint256 messageId;\n  address owner;\n\n  /**events*/\n  event MessageUpdated(string indexed new_message);\n\n  /** errors */\n  error MessageTriggerFailed();\n\n  /** initialize contract message*/\n  constructor(string memory initial_message) {\n    message = initial_message;\n  }\n\n  /** modifiers - permission access */\n  modifier onlyOwner {\n    require(msg.sender == owner, \"Only owner can call this function\");\n    _;\n  }\n\n  /**get current[initial] message*/\n  function get_current_message () external view returns(string memory) {\n    return message;\n  }\n\n  /**set message*/\n  function setMessage(string calldata _message) external onlyOwner {\n    message = _message;\n    emit MessageUpdated(_message);\n  }\n}",
  "sourcePath": "/home/jaz/Documents/ACADEMICS/WEB3.0/TRUFFLE/task/truffle/contracts/HelloWorld.sol",
  "compiler": {
    "name": "solc",
    "version": "0.8.18+commit.87f61d96.Emscripten.clang"
  },
  "schemaVersion": "3.4.16",
  "updatedAt": "2024-02-18T20:07:01.110Z",
  "devdoc": {
    "kind": "dev",
    "methods": {},
    "version": 1
  },
  "userdoc": {
    "errors": {
      "MessageTriggerFailed()": [
        {
          "notice": "errors "
        }
      ]
    },
    "events": {
      "MessageUpdated(string)": {
        "notice": "events"
      }
    },
    "kind": "user",
    "methods": {
      "constructor": {
        "notice": "initialize contract message"
      },
      "get_current_message()": {
        "notice": "get current[initial] message"
      },
      "setMessage(string)": {
        "notice": "set message"
      }
    },
    "version": 1
  }
}