{
  "contractName": "MailBox",
  "abi": [
    {
      "inputs": [
        {
          "internalType": "string",
          "name": "initialMail",
          "type": "string"
        }
      ],
      "stateMutability": "nonpayable",
      "type": "constructor"
    },
    {
      "inputs": [],
      "name": "mail",
      "outputs": [
        {
          "internalType": "string",
          "name": "",
          "type": "string"
        }
      ],
      "stateMutability": "view",
      "type": "function"
    },
    {
      "inputs": [],
      "name": "mailCount",
      "outputs": [
        {
          "internalType": "uint256",
          "name": "",
          "type": "uint256"
        }
      ],
      "stateMutability": "view",
      "type": "function"
    },
    {
      "inputs": [
        {
          "internalType": "string",
          "name": "newMail",
          "type": "string"
        }
      ],
      "name": "setMail",
      "outputs": [],
      "stateMutability": "nonpayable",
      "type": "function"
    },
    {
      "inputs": [],
      "name": "getAddress",
      "outputs": [
        {
          "internalType": "address",
          "name": "",
          "type": "address"
        }
      ],
      "stateMutability": "view",
      "type": "function"
    }
  ],
  "bytecode": "0x608060405234801562000010575f80fd5b5060405162000e2238038062000e22833981810160405281019062000036919062000247565b805f9081620000469190620004cd565b50600160025f6101000a81548160ff02191690831515021790555060015f8154809291906200007590620005de565b919050555033600260016101000a81548173ffffffffffffffffffffffffffffffffffffffff021916908373ffffffffffffffffffffffffffffffffffffffff160217905550506200062a565b5f604051905090565b5f80fd5b5f80fd5b5f80fd5b5f80fd5b5f601f19601f8301169050919050565b7f4e487b71000000000000000000000000000000000000000000000000000000005f52604160045260245ffd5b6200012382620000db565b810181811067ffffffffffffffff82111715620001455762000144620000eb565b5b80604052505050565b5f62000159620000c2565b905062000167828262000118565b919050565b5f67ffffffffffffffff821115620001895762000188620000eb565b5b6200019482620000db565b9050602081019050919050565b5f5b83811015620001c0578082015181840152602081019050620001a3565b5f8484015250505050565b5f620001e1620001db846200016c565b6200014e565b9050828152602081018484840111156200020057620001ff620000d7565b5b6200020d848285620001a1565b509392505050565b5f82601f8301126200022c576200022b620000d3565b5b81516200023e848260208601620001cb565b91505092915050565b5f602082840312156200025f576200025e620000cb565b5b5f82015167ffffffffffffffff8111156200027f576200027e620000cf565b5b6200028d8482850162000215565b91505092915050565b5f81519050919050565b7f4e487b71000000000000000000000000000000000000000000000000000000005f52602260045260245ffd5b5f6002820490506001821680620002e557607f821691505b602082108103620002fb57620002fa620002a0565b5b50919050565b5f819050815f5260205f209050919050565b5f6020601f8301049050919050565b5f82821b905092915050565b5f600883026200035f7fffffffffffffffffffffffffffffffffffffffffffffffffffffffffffffffff8262000322565b6200036b868362000322565b95508019841693508086168417925050509392505050565b5f819050919050565b5f819050919050565b5f620003b5620003af620003a98462000383565b6200038c565b62000383565b9050919050565b5f819050919050565b620003d08362000395565b620003e8620003df82620003bc565b8484546200032e565b825550505050565b5f90565b620003fe620003f0565b6200040b818484620003c5565b505050565b5b818110156200043257620004265f82620003f4565b60018101905062000411565b5050565b601f82111562000481576200044b8162000301565b620004568462000313565b8101602085101562000466578190505b6200047e620004758562000313565b83018262000410565b50505b505050565b5f82821c905092915050565b5f620004a35f198460080262000486565b1980831691505092915050565b5f620004bd838362000492565b9150826002028217905092915050565b620004d88262000296565b67ffffffffffffffff811115620004f457620004f3620000eb565b5b620005008254620002cd565b6200050d82828562000436565b5f60209050601f83116001811462000543575f84156200052e578287015190505b6200053a8582620004b0565b865550620005a9565b601f198416620005538662000301565b5f5b828110156200057c5784890151825560018201915060208501945060208101905062000555565b868310156200059c578489015162000598601f89168262000492565b8355505b6001600288020188555050505b505050505050565b7f4e487b71000000000000000000000000000000000000000000000000000000005f52601160045260245ffd5b5f620005ea8262000383565b91507fffffffffffffffffffffffffffffffffffffffffffffffffffffffffffffffff82036200061f576200061e620005b1565b5b600182019050919050565b6107ea80620006385f395ff3fe608060405234801561000f575f80fd5b506004361061004a575f3560e01c806338cc48311461004e578063412e2b311461006c5780639a68308f14610088578063dec97828146100a6575b5f80fd5b6100566100c4565b60405161006391906101ff565b60405180910390f35b61008660048036038101906100819190610365565b6100ed565b005b61009061012f565b60405161009d9190610426565b60405180910390f35b6100ae6101ba565b6040516100bb919061045e565b60405180910390f35b5f600260019054906101000a900473ffffffffffffffffffffffffffffffffffffffff16905090565b805f90816100fb9190610671565b505f60025f6101000a81548160ff02191690831515021790555060015f8154809291906101279061076d565b919050555050565b5f805461013b906104a4565b80601f0160208091040260200160405190810160405280929190818152602001828054610167906104a4565b80156101b25780601f10610189576101008083540402835291602001916101b2565b820191905f5260205f20905b81548152906001019060200180831161019557829003601f168201915b505050505081565b60015481565b5f73ffffffffffffffffffffffffffffffffffffffff82169050919050565b5f6101e9826101c0565b9050919050565b6101f9816101df565b82525050565b5f6020820190506102125f8301846101f0565b92915050565b5f604051905090565b5f80fd5b5f80fd5b5f80fd5b5f80fd5b5f601f19601f8301169050919050565b7f4e487b71000000000000000000000000000000000000000000000000000000005f52604160045260245ffd5b61027782610231565b810181811067ffffffffffffffff8211171561029657610295610241565b5b80604052505050565b5f6102a8610218565b90506102b4828261026e565b919050565b5f67ffffffffffffffff8211156102d3576102d2610241565b5b6102dc82610231565b9050602081019050919050565b828183375f83830152505050565b5f610309610304846102b9565b61029f565b9050828152602081018484840111156103255761032461022d565b5b6103308482856102e9565b509392505050565b5f82601f83011261034c5761034b610229565b5b813561035c8482602086016102f7565b91505092915050565b5f6020828403121561037a57610379610221565b5b5f82013567ffffffffffffffff81111561039757610396610225565b5b6103a384828501610338565b91505092915050565b5f81519050919050565b5f82825260208201905092915050565b5f5b838110156103e35780820151818401526020810190506103c8565b5f8484015250505050565b5f6103f8826103ac565b61040281856103b6565b93506104128185602086016103c6565b61041b81610231565b840191505092915050565b5f6020820190508181035f83015261043e81846103ee565b905092915050565b5f819050919050565b61045881610446565b82525050565b5f6020820190506104715f83018461044f565b92915050565b7f4e487b71000000000000000000000000000000000000000000000000000000005f52602260045260245ffd5b5f60028204905060018216806104bb57607f821691505b6020821081036104ce576104cd610477565b5b50919050565b5f819050815f5260205f209050919050565b5f6020601f8301049050919050565b5f82821b905092915050565b5f600883026105307fffffffffffffffffffffffffffffffffffffffffffffffffffffffffffffffff826104f5565b61053a86836104f5565b95508019841693508086168417925050509392505050565b5f819050919050565b5f61057561057061056b84610446565b610552565b610446565b9050919050565b5f819050919050565b61058e8361055b565b6105a261059a8261057c565b848454610501565b825550505050565b5f90565b6105b66105aa565b6105c1818484610585565b505050565b5b818110156105e4576105d95f826105ae565b6001810190506105c7565b5050565b601f821115610629576105fa816104d4565b610603846104e6565b81016020851015610612578190505b61062661061e856104e6565b8301826105c6565b50505b505050565b5f82821c905092915050565b5f6106495f198460080261062e565b1980831691505092915050565b5f610661838361063a565b9150826002028217905092915050565b61067a826103ac565b67ffffffffffffffff81111561069357610692610241565b5b61069d82546104a4565b6106a88282856105e8565b5f60209050601f8311600181146106d9575f84156106c7578287015190505b6106d18582610656565b865550610738565b601f1984166106e7866104d4565b5f5b8281101561070e578489015182556001820191506020850194506020810190506106e9565b8683101561072b5784890151610727601f89168261063a565b8355505b6001600288020188555050505b505050505050565b7f4e487b71000000000000000000000000000000000000000000000000000000005f52601160045260245ffd5b5f61077782610446565b91507fffffffffffffffffffffffffffffffffffffffffffffffffffffffffffffffff82036107a9576107a8610740565b5b60018201905091905056fea264697066735822122033e11388ff10baf3e8c699436835f88455f564cd1c72ec0dd2c9da6a5b94880064736f6c63430008150033",
  "immutableReferences": {},
  "source": "// SPDX-License-Identifier: MIT\npragma solidity ^0.8.19;\n\ncontract MailBox {\n    string public mail;\n    uint public mailCount;\n    bool isInitialMail;\n    address senderAddress;\n\n    constructor(string memory initialMail) {\n        mail= initialMail;\n        isInitialMail = true;\n        mailCount++;\n        senderAddress = msg.sender;\n    }\n\n    function setMail(string memory newMail) public {\n        mail = newMail;\n        isInitialMail = false;\n        mailCount++;\n    }\n\n    function getAddress() public view returns(address) {\n        return senderAddress;\n\n    }\n\n\n}",
  "sourcePath": "/home/jaz/Documents/ACADEMICS/Solidity/TRUFFLE/QuickStart/contracts/MailBox.sol",
  "compiler": {
    "name": "solc",
    "version": "0.8.21+commit.d9974bed.Emscripten.clang"
  },
  "schemaVersion": "3.4.16",
  "updatedAt": "2023-11-22T11:24:52.902Z",
  "devdoc": {
    "kind": "dev",
    "methods": {},
    "version": 1
  },
  "userdoc": {
    "kind": "user",
    "methods": {},
    "version": 1
  }
}